:020000040800F2
:1000000000800020C50F0008E10D0008E30D000886
:10001000E50D0008E70D0008E90D000800000000EC
:10002000000000000000000000000000EB0D0008D0
:10003000ED0D000800000000EF0D0008F10D0008B4
:1000400015100008151000081510000815100008FC
:1000500015100008151000081510000815100008EC
:1000600015100008151000081510000815100008DC
:1000700015100008151000081510000815100008CC
:1000800015100008000000001510000815100008E9
:1000900015100008151000081510000815100008AC
:1000A000151000081510000815100008151000089C
:1000B000151000081510000815100008151000088C
:1000C000151000081510000815100008151000087C
:1000D00015100008F90D000815100008151000088B
:1000E000151000081510000815100008151000085C
:1000F0001510000815100008151000080000000079
:100100000000000015100008000000001510000895
:100110001510000800000000151000081510000858
:10012000151000081510000815100008151000081B
:100130001510000800000000000000001510000865
:100140001510000815100008000000000000000055
:10015000000000000000000000000000000000009F
:100160000000000000000000000000001510000862
:100170001510000800000000000000000000000052
:100180000000000015100008000000000000000042
:10019000000000000000000000000000000000005F
:1001A00000000000000000001510000815100008F5
:1001B00015100008151000081510000800000000B8
:1001C0000000000015100008000000000000000002
:0801D0001510000815100008CD
:1002000010B5054C237833B9044B13B10448AFF350
:1002100000800123237010BDBC04002000000000FA
:10022000C036000808B5034B1BB103490348AFF3C0
:10023000008008BD00000000C0040020C036000897
:1002400053B94AB9002908BF00281CBF4FF0FF313D
:100250004FF0FF3000F074B9ADF1080C6DE904CE39
:1002600000F006F8DDF804E0DDE9022304B0704791
:100270002DE9F047089E0D4604468846002B4DD1D7
:100280008A42944668D9B2FA82F252B101FA02F374
:10029000C2F1200120FA01F10CFA02FC41EA030844
:1002A00094404FEA1C45210CB8FBF5FE1FFA8CF771
:1002B00005FB1E8341EA03430EFB07F199420BD96C
:1002C0001CEB03030EF1FF3080F01E81994240F2D7
:1002D0001B81AEF1020E63445B1AA4B2B3FBF5F0CE
:1002E00005FB103344EA034400FB07F7A7420AD991
:1002F0001CEB040400F1FF3380F00881A74240F2B8
:10030000058164440238E41B40EA0E4000211EB11E
:10031000D4400023C6E90043BDE8F0878B4208D9EA
:10032000002E00F0EE800021C6E900050846BDE879
:10033000F087B3FA83F100294AD1AB4202D382425B
:1003400000F2F980841A65EB030301209846002E21
:10035000E2D0C6E90048DFE702B9FFDEB2FA82F276
:10036000002A40F09180A1EB0C054FEA1C471FFAD0
:100370008CFE0121B5FBF7F307FB1350250C45EA72
:1003800000450EFB03F0A84208D91CEB050503F15C
:10039000FF3802D2A84200F2CB8043462D1AA4B205
:1003A000B5FBF7F007FB105544EA05440EFB00FED1
:1003B000A64508D91CEB040400F1FF3502D2A6457E
:1003C00000F2BB802846A4EB0E0440EA03409EE7FF
:1003D000C1F120078B4022FA07FC4CEA030C20FAFB
:1003E00007F405FA01F31C43FD404FEA1C4900FAEB
:1003F00001F3B5FBF9F8200C1FFA8CFE09FB185528
:1004000040EA054508FB0EF0A84202FA01F20BD9BA
:100410001CEB050508F1FF3A80F08880A84240F205
:100420008580A8F1020865442D1AA4B2B5FBF9F045
:1004300009FB105544EA054500FB0EFEAE4508D900
:100440001CEB050500F1FF346CD2AE456AD90238C9
:10045000654440EA0840A0FB0294A5EB0E05A542C6
:10046000C846A64656D353D05EB1B3EB080265EB3F
:100470000E0505FA07F722FA01F3CD401F43C6E93E
:1004800000750021BDE8F087C2F1200320FA03F1D6
:100490000CFA02FC25FA03F395400D434FEA1C4782
:1004A0001FFA8CFEB3FBF7F107FB11302B0C43EA6C
:1004B000004301FB0EF0984204FA02F408D91CEB49
:1004C000030301F1FF382FD298422DD9023963443A
:1004D0001B1AADB2B3FBF7F007FB103345EA034537
:1004E00000FB0EF3AB4208D91CEB050500F1FF3809
:1004F00016D2AB4214D902386544ED1A40EA0141E4
:1005000038E73146304607E78646E5E61846FAE61C
:100510004B45A9D2B9EB020864EB0C0E0138A3E7F6
:100520004046EAE7204694E74146D1E7D0467BE7DC
:10053000023B654432E7084609E76444023842E773
:10054000704700BF00000000000000000000000035
:10055000000000000000000000000000000000009B
:10056000A2EB0300704700BF02780B78012A28BF76
:100570009A42F5D16DE9044540EA0104CDE90267EC
:100580006FF0000C4FEA447212B380EA010414F0D9
:10059000070F6AD100F0070420F0070004F00305FC
:1005A00021F007014FEAC505F0E8042314F0040F19
:1005B000F1E804670CFA05F462EA040266EA04064C
:1005C0000AD063EA0403624667EA0407664603E06A
:1005D000F0E80423F1E8046782FA4CF582EA0604A5
:1005E000A4FA8CF46CBB83FA4CF583EA0705A5FAF0
:1005F0008CF595B950E9022351E9026782FA4CF56E
:1006000082EA0604A4FA8CF483FA4CF583EA07051F
:10061000A5FA8CF52543DBD09CB92DBAB5FA85F443
:1006200024F0070427FA04F1DDE9026723FA04F352
:1006300003F0FF0001F0FF01FDE80445A0EB01001D
:10064000704724BAB4FA84F424F0070426FA04F1BB
:10065000DDE9026722FA04F202F0FF0001F0FF0177
:10066000FDE80445A0EB0100704714F0030F3CD1F6
:1006700010F0030428D150F8082B51F8083B82FAF7
:100680004CF582EA0305A5FA8CF55DB950F8042C07
:1006900051F8043C82FA4CF582EA0305A5FA8CF580
:1006A000002DE8D02DBAB5FA85F424F0070423FA1A
:1006B00004F122FA04F202F0FF0001F0FF01FDE86C
:1006C0000445A0EB010070474FEAC40420F003008A
:1006D00050F8082B21F0030151F8083B0CFA04F400
:1006E00062EA040263EA0403C9E710F003041AD0C3
:1006F000A1EB040120F00300E40750F8042B06D01E
:100700000FD28B785FFAA2F4E41A06D12BB1CB7822
:100710005FFAB2F4E41A00D11BB920465DF8104B21
:10072000704701F1040150F8042BCC0721F00301BC
:1007300051F8043B48D824D222F07F4482FA4CF589
:1007400094EA1325A5FA8CF50AD165B951F8043B52
:1007500084EA0204B4EB036F0ED150F8042BEBE7EC
:100760004FEA132355E035F07F454DD10878FDE879
:100770000445C0F1000070474FEA126203F0FF0326
:1007800047E002EA1C4482FA4CF594EA1345A5FAC4
:100790008CF50AD165B951F8043B84EA0204B4EB44
:1007A000034F0CD150F8042BEBE74FEA134330E032
:1007B00015EA1C4528D10B884FEA124229E04FEA7E
:1007C000124203EA1C4324E002F0FF0482FA4CF5D3
:1007D00094EA1365A5FA8CF50AD165B951F8043B82
:1007E00084EA0204B4EB032F09D150F8042BEBE7A1
:1007F0004FEA13630DE015F0FF0F05D10B684FEAC8
:10080000122223F07F4304E04FF00000FDE804458E
:10081000704712BA1BBA82FA4CF482EA0304A4FAB3
:100820008CF5B5FA85F402FA04F203FA04F34FEA00
:100830001260FDE80445A0EB136070470000000063
:1008400090F800F06DE9024520F007016FF0000C10
:1008500010F0070491F820F040F049804FF00004B8
:100860006FF00700D1E9002391F840F000F1080093
:1008700082FA4CF2A4FA8CF283FA4CF3A2FA8CF3CB
:100880004BBBD1E9022382FA4CF200F10800A4FA32
:100890008CF283FA4CF3A2FA8CF3E3B9D1E9042386
:1008A00082FA4CF200F10800A4FA8CF283FA4CF3BD
:1008B000A2FA8CF37BB9D1E9062301F1200182FA77
:1008C0004CF200F10800A4FA8CF283FA4CF3A2FA7D
:1008D0008CF3002BC6D0002A04BF04301A4612BA8B
:1008E000B2FA82F2FDE8024500EBD2007047D1E98E
:1008F000002304F00305C4F100004FEAC50514F01D
:10090000040F91F840F00CFA05F562EA05021CBFED
:1009100063EA050362464FF00004A9E730B589B0E9
:100920000024039404940594069407941E4BDA6CF7
:1009300042F02002DA64DA6C02F020020092009A9F
:10094000DA6C42F00102DA64DA6C02F00102019220
:10095000019ADA6C42F00202DA64DB6C03F0020303
:100960000293029B01224FF488714FF0904000F0F7
:1009700073FD224620214FF0904000F06DFD4FF4B2
:1009800098730393012504950594069403A94FF0E9
:10099000904000F073FC03950494059403A9034868
:1009A00000F06CFC09B030BD0010024000040048AB
:1009B00008B500221146252000F090FB252000F00C
:1009C000C5FB08BD38B50446094D4FF47A730422BF
:1009D0000849284602F0B8FA2046FFF731FF4FF4E5
:1009E0007A7382B22146284602F0AEFA38BD00BFC3
:1009F0001C070020D836000838B504460C4D4FF4CB
:100A00007A7304220B49284602F09EFA2046FFF72B
:100A100017FF4FF47A7382B22146284602F094FA07
:100A20004FF47A7304220449284602F08DFA38BD47
:100A30001C070020DC360008E036000810B590B036
:100A40000446002100913C2201A802F0F9FC214655
:100A5000684602F047FD6846FFF7F2FE0DEB000224
:100A60000A4B19889B782DF8001093706846FFF7A1
:100A7000A9FF6846FFF7E4FE4FF47A7382B2694635
:100A8000034802F061FA10B010BD00BFE036000864
:100A9000880600200B4B834200D0704710B50A4CEB
:100AA00021780A4800F0FBF823780A2B05D00122B0
:100AB0000549044802F0E8FB10BD054A13780133EC
:100AC0001370F4E788060020200600201C05002093
:100AD00018050020124B1B7813B170B5002407E0F5
:100AE000002070470F4B9B5D0A2B0FD00134A4B23E
:100AF0003F2C0ED826460B4D29190B4800F0BCF8A8
:100B00002B5D0D2BEED100222A55EBE7054B002281
:100B10009A55034A1378013B1370024870BD00BF19
:100B200018050020D80400201C05002010B5FFF790
:100B3000D1FF0028FBD00446FFF75EFF03492046A3
:100B4000FFF712FD0028F2D110BD00BFE436000807
:100B5000FEE700B595B03822002106A802F070FC2F
:100B600000200190029003900490059000F07AFC20
:100B7000022306934FF48072099240220A920D9349
:100B80000E9304220F9255221092119312931393F5
:100B900006A800F021FD90B90F23019303230293CF
:100BA000002303934FF480620492059304210DEB1C
:100BB000010000F0C7FF20B915B05DF804FBFFF796
:100BC000C7FFFFF7C5FF000008B500F04DFAFFF7BB
:100BD000C0FFFFF7A3FE00F04DF900F017F900F099
:100BE00075F8FFF7E5FE012219491A4802F04CFB9F
:100BF0001948FFF723FFFFF799FF1848FFF71EFF7B
:100C0000FFF794FF1648FFF719FFFFF78FFF15480E
:100C1000FFF714FFFFF78AFF1348FFF70FFFFFF7F7
:100C200085FF1248FFF70AFFFFF780FF1048FFF724
:100C300005FFFFF77BFF0F4C2046FFF7FFFEFFF796
:100C400075FF2046FFF7FAFEFFF770FF00BFFDE7D4
:100C50002006002088060020E8360008000000205A
:100C600008000020640000207000002048000020E0
:100C70001400002038000020028843889A420CD0DB
:100C800003441B790B70438801335A42DBB2D2B262
:100C900058BF5342438000207047012070470288AC
:100CA000531CD3F1000CDBB25FFA8CFC58BFCCF1C3
:100CB0000003DBB2B0F802C0634504D002441171F6
:100CC00003800020704701207047000008B51148DC
:100CD000114B03604FF4827343604FF40043836011
:100CE0004FF44073C3600023036143614FF400720B
:100CF0008261C3610362436283620722C26203634B
:100D00000823436301F0B6F900B908BDFFF720FFDF
:100D1000FBE700BF240600200038004030B589B052
:100D200000230393049305930693079302681C4BD7
:100D30009A4201D009B030BD03F5EC339A6D42F40C
:100D400080429A659A6D02F480420092009ADA6CB1
:100D500042F02002DA64DA6C02F020020192019A79
:100D6000DA6C42F00102DA64DB6C03F001030293F7
:100D7000029B0224039404940525079503A90948BE
:100D800000F07CFA4FF4006303930494002305936E
:100D90000693079503A94FF0904000F06FFAC9E75A
:100DA000003800400014004800B583B00B4B1A6EA9
:100DB00042F001021A661A6E02F001020092009AD5
:100DC0009A6D42F080529A659B6D03F080530193B7
:100DD000019B00F0CDFB03B05DF804FB0010024066
:100DE000FEE7FEE7FEE7FEE7FEE770477047704765
:100DF00008B500F04FF908BD08B5024801F0F8F950
:100E000008BD00BF880600207047000008B51748DD
:100E1000174B03604FF4E133436000238360C360EA
:100E200003610C2242618361C36103624362836296
:100E300002F058F970B900210C4802F093FA60B939
:100E400000210A4802F0B3FA50B9084802F06BFAE0
:100E500048B908BDFFF77CFEEDE7FFF779FEEFE745
:100E6000FFF776FEF1E7FFF773FEF2E78806002052
:100E70000038014008B51748174B03604FF4E133C1
:100E8000436000238360C36003610C22426183617D
:100E9000C36103624362836202F024F970B90021E6
:100EA0000C4802F05FFA60B900210A4802F07FFAAC
:100EB00050B9084802F037FA48B908BDFFF748FEB4
:100EC000EDE7FFF745FEEFE7FFF742FEF1E7FFF73B
:100ED0003FFEF2E71C0700200044004010B59AB026
:100EE00004460021159116911791189119914422E9
:100EF00004A802F0A5FA23682F4A934204D02F4A8F
:100F000093422DD01AB010BD0123049304A800F021
:100F10003FFF10BB2A4B1A6E42F480421A661A6ECB
:100F200002F480420092009ADA6C42F00102DA6424
:100F3000DB6C03F001030193019B4FF4C063159335
:100F4000022316930023179318930723199315A9C7
:100F50004FF0904000F092F9D4E7FFF7F9FDD9E7A0
:100F60000223049304A800F013FF08BB144B9A6DEE
:100F700042F400329A659A6D02F400320292029AAB
:100F8000DA6C42F00102DA64DB6C03F001030393D4
:100F9000039B0C2315930223169300231793189396
:100FA0000723199315A94FF0904000F067F9A9E7BE
:100FB000FFF7CEFDDAE700BF0038014000440040F3
:100FC000001002400D488546FFF71EFF0C480D49F2
:100FD0000D4A002302E0D458C4500433C4188C4294
:100FE000F9D30A4A0A4C002301E013600432A242FA
:100FF000FBD302F001FAFFF7E7FDFEE700800020D7
:1010000000000020BC04002044370008BC0400207D
:10101000B8070020FEE70000104B1B680BB9012049
:10102000704710B504464FF47A70B0FBF3F30C4AE6
:101030001068B0FBF3F000F097F868B90F2C01D9F5
:1010400001200AE0002221464FF0FF3000F046F870
:10105000044B1C60002000E0012010BD8400002033
:10106000800000208800002010B5094A136843F46E
:1010700080731360032000F01FF80020FFF7CCFFFF
:1010800010B10124204610BD0446FFF78DFEF9E79C
:1010900000200240034A1368034909680B441360A7
:1010A000704700BFB007002084000020014B186883
:1010B000704700BFB0070020074AD36823F4E063FD
:1010C0001B041B0C000200F4E060034343F0BF6309
:1010D00043F40033D360704700ED00E000B5194BD6
:1010E000DB68C3F30223C3F1070CBCF1040F28BF74
:1010F0004FF0040C03F1040EBEF1060F18D9033BA8
:101100004FF0FF3E0EFA0CFC21EA0C0199400EFA5A
:1011100003F322EA0303194300280BDB0901C9B2D8
:1011200000F1604000F5614080F800135DF804FBB9
:101130000023E5E700F00F000901C9B2024B195482
:10114000F4E700BF00ED00E014ED00E0002807DB4D
:1011500000F01F02400901239340024A42F8203068
:10116000704700BF00E100E00138B0F1807F0BD292
:101170004FF0E0235861054AF02182F82310002047
:10118000986107221A6170470120704700ED00E066
:10119000034690F82520D2B2022A09D00422C26365
:1011A0000120012283F82520002283F824207047A3
:1011B00001680A6822F00E020A60816C0A6822F453
:1011C00080720A6001680A6822F001020A60426CBB
:1011D00002F01F01006C01228A404260DA6C196D36
:1011E00051605A6D42B1116821F4807111609A6D9D
:1011F000D96D51600020D4E70020D2E708B590F8FF
:101200002530DBB2022B09D00423C363012380F80D
:101210002530002280F82420184608BD0268136893
:1012200023F00E0313600268136823F001031360B8
:10123000826C136823F480731360436C03F01F0205
:10124000016C012393404B60C36C026D5A60436D87
:1012500033B11A6822F480721A60836DC26D5A60CD
:10126000012380F82530002380F82430836B13B1EC
:1012700098470020D1E70020CFE7000070B582B08A
:10128000002365E085685E000324B44025EA040578
:10129000CC68B4402C438460446824EA0C0C4C684D
:1012A000C4F300149C4044EA0C04446061E0DD088F
:1012B000083550F8256003F007044FEA840C0F242A
:1012C00004FA0CF426EA040E0C6904FA0CF444EA5D
:1012D0000E0440F8254063E0052400E0002404FAF1
:1012E0000EF42C430CF1020C574D45F82C40574C92
:1012F000A568D44325EA0206D1F804C01CF4801F77
:1013000001D042EA0506514DAE60ED6804EA0506DB
:10131000D1F804C01CF4001F01D042EA05064B4D71
:10132000EE606D6804EA0506D1F804C01CF4003FC5
:1013300001D042EA0506454D6E602D682C404E688E
:1013400016F4803F01D042EA0504404A146001339C
:101350000A6832FA03F474D04FF0010C0CFA03FC63
:101360001CEA0202F3D04C6804F00304013C012C97
:1013700088D94C6804F00304032C0CD0C4685D00C9
:101380004FF0030C0CFA05FC24EA0C0C8C68AC4002
:1013900044EA0C04C4604C6804F00304022C86D0B8
:1013A00004684FEA430E4FF0030C0CFA0EFC24EADB
:1013B0000C0C4C6804F0030404FA0EF444EA0C0428
:1013C00004604C6814F4403FC1D0214C256E45F0B8
:1013D00001052566246E04F001040194019C4FEA86
:1013E000930C0CF10205184C54F8255003F003043B
:1013F0004FEA840E0F2404FA0EF425EA0405B0F136
:10140000904F3FF46BAF134CA04212D004F58064B0
:10141000A04210D004F58064A0420ED004F5806490
:10142000A0420CD004F58064A0423FF455AF0624DE
:1014300055E7012453E7022451E703244FE704242E
:101440004DE702B070BD00BF000001400004014044
:1014500000100240000400480AB1816170478162B7
:1014600070470000002836D13E4B1B6803F4C06370
:10147000B3F5806F08D03B4AD2F8803023F48073F4
:10148000C2F8803000207047364AD2F8803023F40A
:101490008073C2F88030136823F4C06343F4007390
:1014A0001360314B1B68322202FB03F32F4AA2FB6D
:1014B00003239B0C013300E0013B2A4A526912F4DA
:1014C000806F01D0002BF7D1264B5B6913F4806F3E
:1014D00044D100207047B0F5007F08D0214A13683E
:1014E00023F4C06343F480631360002070471D4BF6
:1014F0001B6803F4C063B3F5806F08D0194AD2F8B3
:10150000803043F48073C2F8803000207047154A61
:10151000D2F8803043F48073C2F88030136823F42B
:10152000C06343F4007313600F4B1B68322202FB4D
:1015300003F30E4AA2FB03239B0C013300E0013BA3
:10154000084A526912F4806F01D0002BF7D1054B85
:101550005B6913F4806F03D100207047032070474C
:1015600003207047007000408000002083DE1B4392
:10157000024A936843F480439360704700700040D0
:10158000124BDA6802F00302D868C0F30310431C60
:10159000032A11D00E48B0FBF3F00C4BDB68C3F309
:1015A000062303FB00F0094BDB68C3F341630133FF
:1015B0005B00B0FBF3F070470648B0FBF3F0034B61
:1015C000DB68C3F3062303FB00F0ECE700100240E6
:1015D0000024F40000127A00002800F04F8270B559
:1015E00082B00446036813F0010F37D0A44A936811
:1015F00003F00C03D26802F003020C2B23D0082B5B
:1016000023D06368B3F5803F4ED0B3F5A02F51D0FF
:101610009B4B1A6822F480321A601A6822F48022E6
:101620001A606368002B52D0FFF740FD0546944BCB
:101630001B6813F4003F11D1FFF738FD401B6428ED
:10164000F5D9032023E2032AD9D18D4B1B6813F46B
:10165000003F03D06368002B00F01282236813F070
:10166000020F5DD0864A936803F00C03D26802F043
:1016700003020C2B3AD0042B3AD0E368002B75D030
:101680007F4A136843F480731360FFF70FFD05462C
:101690007B4B1B6813F4806F5FD1FFF707FD401B86
:1016A0000228F5D90320F2E1754A136843F4803328
:1016B0001360B6E703F18043A3F53C331A6842F4A4
:1016C00080221A601A6842F480321A60A9E7FFF794
:1016D000EDFC05466A4B1B6813F4003FBED0FFF7D4
:1016E000E5FC401B6428F5D90320D0E1022AC2D1D1
:1016F000634B1B6813F4806F03D0E368002B00F08A
:10170000C1815F4A536823F0FE43216943EA0163C4
:1017100053605C4B1868FFF77FFC002840F0B481F1
:10172000236813F0080F4CD063699BB3544AD2F876
:10173000943043F00103C2F89430FFF7B7FC05463C
:101740004F4BD3F8943013F0020F3AD1FFF7AEFCB1
:10175000401B0228F4D9032099E1494A536823F039
:10176000FE43216943EA01635360D9E7444A1368A1
:1017700023F480731360FFF799FC0546404B1B6808
:1017800013F4806FCCD0FFF791FC401B0228F5D9F1
:1017900003207CE13A4AD2F8943023F00103C2F8E6
:1017A0009430FFF783FC0546354BD3F8943013F0A3
:1017B000020F06D0FFF77AFC401B0228F4D9032061
:1017C00065E1236813F0040F00F081802C4B9B6DC2
:1017D00013F0805F36D12A4B9A6D42F080529A65A1
:1017E0009B6D03F080530193019B0125264B1B68E1
:1017F00013F4807F28D0A368012B39D0052B45D066
:101800001F4BD3F8902022F00102C3F89020D3F8A8
:10181000902022F00402C3F89020A368002B43D04C
:10182000FFF744FC0646164BD3F8903013F0020F36
:101830004CD1FFF73BFC801B41F288339842F2D930
:10184000032024E10025D1E70F4A136843F4807395
:101850001360FFF72BFC06460B4B1B6813F4807FCD
:10186000C9D1FFF723FC801B0228F5D903200EE124
:10187000034AD2F8903043F00103C2F89030CCE72D
:10188000001002408800002000700040884BD3F810
:10189000902042F00402C3F89020D3F8902042F048
:1018A0000102C3F89020B8E7FFF700FC0646804B22
:1018B000D3F8903013F0020F08D0FFF7F7FB801B2E
:1018C00041F288339842F2D90320E0E0E5B9236879
:1018D00013F0200F35D0A369E3B1754AD2F89830E0
:1018E00043F00103C2F89830FFF7E0FB0546704B68
:1018F000D3F8983013F0020F23D1FFF7D7FB401B2A
:101900000228F4D90320C2E0694A936D23F0805382
:101910009365DCE7664AD2F8983023F00103C2F8F9
:101920009830FFF7C3FB0546614BD3F8983013F0AE
:10193000020F06D0FFF7BAFB401B0228F4D90320A0
:10194000A5E0E369002B00F0A180594A926802F0FB
:101950000C020C2A64D0022B13D0554A136823F0D2
:1019600080731360FFF7A2FB0446514B1B6813F012
:10197000007F4ED0FFF79AFB001B0228F5D9032009
:1019800085E04B4A136823F080731360FFF78EFBEA
:101990000546474B1B6813F0007F06D0FFF786FB18
:1019A000401B0228F5D9032071E0414AD368414920
:1019B0001940236A606A013843EA0013A06A43EAC7
:1019C0000023206B4008013843EA4053606B400815
:1019D000013843EA4063E06A43EAC0630B43D360E3
:1019E000136843F080731360D36843F08073D3604F
:1019F000FFF75CFB04462E4B1B6813F0007F06D1FB
:101A0000FFF754FB001B0228F5D903203FE000201C
:101A10003DE0274AD168284B0B40D360002036E0D8
:101A2000012B36D0224BDB6803F00301226A91427E
:101A300031D103F0F002616A0139B2EB011F2CD100
:101A400003F4FE42A16AB2EB012F28D103F07842E1
:101A5000E16AB2EBC16F24D103F4C001226B5208DA
:101A6000013AB1EB425F1ED103F0C063626B5208D2
:101A7000013AB3EB426F18D1002008E00120704713
:101A8000012004E0012002E0012000E0002002B07B
:101A900070BD0120FBE70120F9E70120F7E70120F5
:101AA000F5E70120F3E70120F1E70120EFE700BFB0
:101AB000001002400C809F01FCFFEEFE1E4B9B6855
:101AC00003F00C03042B33D01B4B9B6803F00C0377
:101AD000082B2FD0184B9B6803F00C030C2B01D064
:101AE00000207047144BDA6802F00302D868C0F394
:101AF0000310431C032A11D01048B0FBF3F00E4B27
:101B0000DB68C3F3062303FB00F00B4BDB68C3F376
:101B1000416301335B00B0FBF3F070470848B0FB52
:101B2000F3F0054BDB68C3F3062303FB00F0ECE79F
:101B30000248704702487047001002400024F40039
:101B400000127A00002800F0E680F8B50C46054641
:101B5000744B1B6803F00F038B420BD2714A13685E
:101B600023F00F030B431360136803F00F038B4242
:101B700040F0D3802E6816F001065FD06B68032B0F
:101B80002FD0022B4DD0684B1B6813F4806F00F0F0
:101B9000C680FFF793FF654B98424DD9624A936820
:101BA00023F0F00343F08003936080265E4A93683D
:101BB00023F0030369680B439360FFF777FA074646
:101BC000594B9B6803F00C036A68B3EB820F35D066
:101BD000FFF76CFAC01B41F288339842F0D903201A
:101BE00078E0514B1B6813F0007F01D1012071E0B8
:101BF000FFF7C6FC4D4B98421AD94B4B9B6813F02C
:101C0000F00F05D02E6816F00206CFD0AB688BB966
:101C1000454A936823F0F00343F0800393608026E5
:101C2000C4E7414B1B6813F4003FB2D1012051E0DF
:101C30000026BBE70026B9E70026B7E72B6813F0BC
:101C4000020F48D013F0040F04D0374A936843F4CE
:101C5000E06393602B6813F0080F06D0324A936854
:101C600023F47C5343F4E06393602F4A936823F09A
:101C7000F003A9680B4393602A4B1B6803F00F0322
:101C8000A34230D82B6813F0040F06D0264A93687D
:101C900023F4E063E9680B4393602B6813F0080FAB
:101CA00007D0214A936823F46053296943EAC103AA
:101CB0009360FFF703FF1C4B9B68C3F303131C4A9D
:101CC000D35C03F01F03D8401A4B18601A4B1868F6
:101CD000FFF7A2F9F8BD802ECED1134A936823F006
:101CE000F0039360C8E70F4A136823F00F03234300
:101CF0001360FFF7DBF906460A4B1B6803F00F037E
:101D0000A342BFD0FFF7D2F9801B41F2883398423B
:101D1000F2D90320DEE7012070470120DAE7012035
:101D2000D8E700BF002002400010024000B4C40405
:101D3000EC3600088000002088000020014B186865
:101D4000704700BF8000002008B5FFF7F7FF054B84
:101D50009B68C3F30223044AD35C03F01F03D840FB
:101D600008BD00BF00100240FC36000808B5FFF7B0
:101D7000E5FF054B9B68C3F3C223044AD35C03F021
:101D80001F03D84008BD00BF00100240FC36000809
:101D9000F0B583B00446036813F4002F69D0AE4B4E
:101DA0009B6D13F0805F1ED1AB4B9A6D42F0805259
:101DB0009A659B6D03F080530193019B0126A74A0E
:101DC000136843F480731360FFF770F90546A34B63
:101DD0001B6813F4807F08D1FFF768F9401B0228C5
:101DE000F5D9032502E00026E9E7002545BB9A4B1B
:101DF000D3F8903013F4407315D0226C9A4212D06D
:101E0000954AD2F8903023F44073D2F8901041F400
:101E10008031C2F89010D2F8901021F48031C2F8CD
:101E20009010C2F8903013F0010F10D145B98A4AD2
:101E3000D2F8903023F44073216C0B43C2F89030F9
:101E4000C6B1854A936D23F08053936512E0FFF786
:101E50002DF90746804BD3F8903013F0020FE5D1EF
:101E6000FFF724F9C01B41F288339842F2D90325C9
:101E7000DCE70025236813F0010F08D0764AD2F87A
:101E8000883023F0030361680B43C2F8883023686D
:101E900013F0020F08D0704AD2F8883023F00C03F8
:101EA000A1680B43C2F88830236813F0040F08D0F0
:101EB000694AD2F8883023F03003E1680B43C2F856
:101EC0008830236813F0080F08D0634AD2F88830AE
:101ED00023F0C00321690B43C2F88830236813F054
:101EE000200F08D05C4AD2F8883023F4406361693F
:101EF0000B43C2F88830236813F0400F08D0564ACD
:101F0000D2F8883023F44053A1690B43C2F88830DB
:101F1000236813F0800F08D04F4AD2F8883023F49A
:101F20004043E1690B43C2F88830236813F4807F93
:101F300008D0494AD2F8883023F44033216A0B4351
:101F4000C2F88830236813F4007F08D0424AD2F8E0
:101F5000883023F44023616A0B43C2F88830236839
:101F600013F4806F0CD03C4AD2F8883023F440132D
:101F7000A16A0B43C2F88830A36AB3F5801F57D01B
:101F8000236813F4006F0CD0334AD2F8883023F45E
:101F90004003E16A0B43C2F88830E36AB3F5800F6F
:101FA0004BD0236813F4805F0CD02B4AD2F88830D2
:101FB00023F04073216B0B43C2F88830236BB3F1DD
:101FC000807F3FD0236813F4005F0CD0224AD2F800
:101FD000883023F04063616B0B43C2F88830636B39
:101FE000B3F1006F33D0236813F4804F0CD01A4A3A
:101FF000D2F8883023F04063A16B0B43C2F88830DD
:10200000A36BB3F1006F2BD0236813F4004F0CD0F7
:10201000114AD2F8883023F04053E16B0B43C2F8E9
:102020008830E36BB3F1805F1FD0284603B0F0BD6A
:10203000D36843F48013D360A2E7D36843F48013DA
:10204000D360AEE7D36843F48013D360BAE7D368B4
:1020500043F48013D360C6E70010024000700040D4
:10206000D36843F48013D360CEE7D36843F480335E
:10207000D360DAE700286FD010B50446436A33B95D
:102080004368B3F5827F05D00023C36102E00023DB
:10209000036143610023A36294F85D30002B52D0AA
:1020A000022384F85D302268136823F04003136034
:1020B000E368B3F5E06F4CD90022B3F5706F04D03C
:1020C000B3F5E06F01D00023A362636803F4827369
:1020D000A16801F404410B43216901F002010B43A3
:1020E000616901F001010B43A16901F400710B4327
:1020F000E16901F038010B43216A01F080010B43D3
:10210000A16A01F4005120680B430360638B03F064
:102110000403616A01F010010B43616B01F00801D7
:102120000B43E16801F470610B43216813434B607A
:102130002268D36923F40063D36100202066012361
:1021400084F85D3010BD84F85C302046FEF7E6FD73
:10215000A6E74FF48052B0E701207047026852E8CA
:10216000003F23F4907342E800310029F6D1026861
:1021700002F1080353E8003F23F0805323F00103EA
:10218000083242E800310029F1D1C36E012B06D09C
:102190002023C0F88C300023C36643677047026871
:1021A00052E8003F23F0100342E800310029F6D145
:1021B000EEE7704708B5026852E8003F23F040039D
:1021C00042E800310029F6D12023C0F888300023EE
:1021D0008367FFF7EEFF08BD704708B5806A0023EC
:1021E000A0F85E30A0F85630FFF7F6FF08BD704744
:1021F00070B504460168CB6908688D6840F60F0227
:102200001A4008D113F0200F05D010F0200F34D160
:1022100015F0805F31D12AB1A04A2A4033D1A04EB7
:10222000304230D1E26E012A00F0C68013F4801FE4
:1022300003D015F4800F40F0738113F0800F07D0A6
:1022400010F0800F40F0738115F4000F40F06F81A3
:1022500013F0400F03D010F0400F40F06F8113F4E3
:10226000000F03D010F0804F40F06C8113F0807F9E
:1022700002D00028C0F26A8170BD636F002BFBD0D2
:1022800020469847F8E713F0010F09D010F4807F3B
:1022900006D001260E62D4F890103143C4F8901095
:1022A00013F0020F0BD015F0010F08D021680226A1
:1022B0000E62D4F8901041F00401C4F8901013F0AD
:1022C000040F0BD015F0010F08D0216804260E6210
:1022D000D4F8901041F00201C4F8901013F0080FE8
:1022E0000BD010F0200F00D13AB122680821116202
:1022F000D4F890200A43C4F8902013F4006F0CD057
:1023000010F0806F09D022684FF400611162D4F898
:10231000902042F02002C4F89020D4F89020002AA7
:10232000AAD013F0200F09D010F0200F02D115F021
:10233000805F03D0636F0BB120469847D4F890209C
:1023400023689B6813F0400F02D112F0280F2CD0A5
:102350002046FFF703FF23689B6813F0400F20D04F
:10236000226802F1080353E8003F23F040030832DB
:1023700042E800310029F3D1D4F880306BB1494AEA
:102380009A63D4F88000FEF739FF00283FF474AF59
:10239000D4F88000836B98476EE72046FFF71CFF58
:1023A0006AE72046FFF718FF66E72046FFF714FFAD
:1023B0000023C4F890305FE713F0100F3FF436AFFE
:1023C00010F0100F3FF432AF10230B6223689B68AC
:1023D00013F0400F68D0D4F880100A6853689BB29D
:1023E000002B4AD0B4F85C00984246D9A4F85E307D
:1023F0000B681B6813F0200F32D1226852E8003FAF
:1024000023F4807342E800310029F6D1226802F1FA
:10241000080353E8003F23F00103083242E800318B
:102420000029F3D1226802F1080353E8003F23F0AA
:102430004003083242E800310029F3D12023C4F8D8
:102440008C300023E366226852E8003F23F010033B
:1024500042E800310029F6D1D4F88000FEF798FE5A
:1024600002232367B4F85C10B4F85E309BB2C91A3B
:1024700089B22046FFF7BBFEFEE6B4F85C10994235
:102480007FF4FAAE136813F0200F3FF4F5AE022389
:1024900023672046FFF7ABFEEEE600BF0100001009
:1024A00020010004DB210008B4F85C10B4F85E30B1
:1024B0009BB2C91A89B2B4F85E309BB2002B3FF4CC
:1024C000DBAE00293FF4D8AE226852E8003F23F487
:1024D000907342E800300028F6D1226802F1080328
:1024E00053E8003F23F0805323F00103083242E811
:1024F00000300028F1D12023C4F88C300023E3669B
:102500006367226852E8003F23F0100342E800307E
:102510000028F6D1022323672046FFF768FEABE6CA
:102520004FF480130B62204600F0FAFEA4E6A36F7E
:10253000002B3FF4A1AE204698479DE62046FFF7CA
:1025400039FE99E6204600F0EDFE95E6204600F0C3
:10255000E8FE91E608B5B0F86030D0F88C20222A69
:1025600005D00268936943F00803936108BD0268CF
:10257000516ADBB2826D0B401370836D013383654A
:10258000B0F85E309BB2013B9BB2A0F85E30B0F871
:102590005E309BB2002BE9D1026852E8003F23F481
:1025A000907342E800310029F6D1026802F1080375
:1025B00053E8003F23F00103083242E800310029CC
:1025C000F3D12023C0F88C300023436703670368EE
:1025D000164A93420CD05B6813F4000F08D00268CF
:1025E00052E8003F23F0806342E800310029F6D131
:1025F000C36E012B16D10023C366026852E8003F68
:1026000023F0100342E800310029F6D10368DA69AB
:1026100012F0100F01D010221A62B0F85C10FFF710
:10262000E6FDA3E7FEF736FAA0E700BF0080004012
:1026300008B5B0F86020D0F88C30222B05D00268A5
:10264000936943F00803936108BD03685B6A816D79
:1026500013400B80836D02338365B0F85E309BB20C
:10266000013B9BB2A0F85E30B0F85E309BB2002B0D
:10267000EAD1026852E8003F23F4907342E8003147
:102680000029F6D1026802F1080353E8003F23F065
:102690000103083242E800310029F3D12023C0F8B9
:1026A0008C300023436703670368164A93420CD0BB
:1026B0005B6813F4000F08D0026852E8003F23F073
:1026C000806342E800310029F6D1C36E012B16D198
:1026D0000023C366026852E8003F23F0100342E87B
:1026E00000310029F6D10368DA6912F0100F01D029
:1026F00010221A62B0F85C10FFF779FDA4E7FEF72C
:10270000C9F9A1E7008000402DE9F843B0F8605016
:102710000368D3F81C90D3F800809F68D0F88C2011
:10272000222A05D09A6942F008029A61BDE8F8832E
:102730000446B0F8686008E0D4F89030002B4DD122
:10274000B4F85E309BB2002B4FD0002E00F0958085
:1027500019F0200F00F091802368596AEBB2A26D46
:102760000B401370A36D0133A365B4F85E309BB2C8
:10277000013B9BB2A4F85E302368D3F81C9019F09B
:10278000070FDDD019F0010F09D018F4807F06D0B3
:1027900001221A62D4F890301343C4F8903019F033
:1027A000020F0BD017F0010F08D0236802221A6223
:1027B000D4F8903043F00403C4F8903019F0040FBB
:1027C000BAD017F0010FB7D0236804221A62D4F8E8
:1027D000903043F00203C4F89030ADE72046FFF795
:1027E000FBFC0023C4F89030AAE7226852E8003FBF
:1027F00023F4807342E800310029F6D1226802F107
:10280000080353E8003F23F0805323F0010308320C
:1028100042E800310029F1D12023C4F88C30002394
:10282000636723672368284A93420CD05B6813F4DC
:10283000000F08D0226852E8003F23F0806342E88E
:1028400000310029F6D1E36E012B39D10023E36674
:10285000226852E8003F23F0100342E800310029CB
:10286000F6D12368DA6912F0100F01D010221A6233
:10287000B4F85C102046FFF7BAFCB4F85E309BB2A7
:10288000002B3FF453AFB4F868209A427FF64EAF66
:10289000226802F1080353E8003F23F08053083216
:1028A00042E800310029F3D1084B6367226852E8FF
:1028B000003F43F0200342E800310029F6D135E71C
:1028C0002046FEF7E7F8D8E70080004055250008CD
:1028D0002DE9F843B0F860500368D3F81C90D3F8A2
:1028E00000809F68D0F88C20222A05D09A6942F097
:1028F00008029A61BDE8F8830446B0F8686008E011
:10290000D4F89030002B4CD1B4F85E309BB2002B41
:102910004ED0002E00F0948019F0200F00F090802F
:1029200023685B6AA26D2B401380A36D0233A365FD
:10293000B4F85E309BB2013B9BB2A4F85E302368D2
:10294000D3F81C9019F0070FDED019F0010F09D051
:1029500018F4807F06D001221A62D4F89030134315
:10296000C4F8903019F0020F0BD017F0010F08D007
:10297000236802221A62D4F8903043F00403C4F8AA
:10298000903019F0040FBBD017F0010FB8D02368B6
:1029900004221A62D4F8903043F00203C4F8903055
:1029A000AEE72046FFF718FC0023C4F89030ABE7F1
:1029B000226852E8003F23F4807342E80031002986
:1029C000F6D1226802F1080353E8003F23F0805358
:1029D00023F00103083242E800310029F1D120231D
:1029E000C4F88C300023636723672368284A934226
:1029F0000CD05B6813F4000F08D0226852E8003F47
:102A000023F0806342E800310029F6D1E36E012B08
:102A100039D10023E366226852E8003F23F0100317
:102A200042E800310029F6D12368DA6912F0100F6C
:102A300001D010221A62B4F85C102046FFF7D7FBD1
:102A4000B4F85E309BB2002B3FF454AFB4F868206A
:102A50009A427FF64FAF226802F1080353E8003F25
:102A600023F08053083242E800310029F3D1094BAA
:102A70006367226852E8003F43F0200342E80031D8
:102A80000029F6D136E72046FEF704F8D8E700BF64
:102A9000008000403126000870B504460168836854
:102AA0000269134342691343C269134308688B4A9E
:102AB000024013430B602268536823F44053E168DB
:102AC0000B435360A1692268854B9A4201D0236A67
:102AD0001943936823F06E4323F430630B439360F0
:102AE0002268D36A23F00F03616A0B43D362236821
:102AF0007C4A934223D07C4A934234D07B4A93420F
:102B00004AD07B4A934259D0754A934268D01022EA
:102B100073498B4200F09580E069B0F5004F00F0FA
:102B2000D280082A00F24F81DFE812F0120134014E
:102B300010014D0137014D014D014D013A0102F5E2
:102B40005842D2F8882002F00302032A09D8DFE8AD
:102B500002F002045C060122DAE70422D8E7082228
:102B6000D6E71022D4E702F5E632D2F8882002F048
:102B70000C020C2A0ED8DFE802F0070D0D0D090D2E
:102B80000D0D4A0D0D0D0B000022C1E70422BFE719
:102B90000822BDE71022BBE702F5E432D2F8882014
:102BA00002F03002202A34D004D8A2B3102A34D143
:102BB0000422ADE7302A32D10822A9E702F5E23239
:102BC000D2F8882002F0C002802A2AD004D852B35A
:102BD000402A2AD104229BE7C02A28D1082297E75D
:102BE00002F5C832D2F8882002F44062B2F5006FD4
:102BF0001FD005D8FAB1B2F5806F1ED1042287E745
:102C0000B2F5406F1BD1082282E7022280E7022240
:102C10007EE702227CE700227AE7102278E7102282
:102C200076E7022274E7002272E7102270E7102292
:102C30006EE702226CE700226AE7102268E71022A2
:102C400066E7082A00F2AF80DFE802F008AD3BAD8E
:102C500038ADADAD05004FF4004004E0FFF774F867
:102C6000002800F0A280626A224B33F81220B0FBE9
:102C7000F2F3656805EB4501994200F29880B3EBE9
:102C8000053F00F29680002633463146FDF7D8FA1C
:102C9000090241EA106100026B08C0182A46334657
:102CA00041F10001FDF7CCFAA0F54072124B9A42B7
:102CB00000F281802368D860304662E0FEF7FEFEB5
:102CC000CEE70E48CFE7082A77D8DFE802F01939B7
:102CD00005763C7676761D00084815E0F369FFCF4F
:102CE000008000400038014000440040004800409F
:102CF000004C004004370008FFFC0F000024F400E3
:102D0000FFF722F800285AD0626A324B33F81230AB
:102D1000B0FBF3F06268530803EB4000B0FBF2F045
:102D2000A0F110024FF6EF739A424AD883B223F013
:102D30000F03C0F3420018432368D860002020E04E
:102D4000FFF714F8DEE7FEF7B9FEDBE7224803E001
:102D5000FEF7FAFF002838D0626A1E4B33F81230B3
:102D6000B0FBF3F0636800EB5300B0FBF3F0A0F1AD
:102D700010024FF6EF739A4229D8236880B2D860C8
:102D800000200123A4F86A30A4F8683000236367A8
:102D9000A36770BDFEF7EAFFDCE7FEF78FFED9E719
:102DA0004FF40040D8E70120EBE70020E9E70120DD
:102DB000E7E70120E5E70120E3E70120E1E7002064
:102DC000DFE70120DDE70120DBE70020D9E7012074
:102DD000D7E700BF043700080024F400836A13F02B
:102DE000080F06D00268536823F40043816B0B433D
:102DF0005360836A13F0010F06D00268536823F40E
:102E00000033C16A0B435360836A13F0020F06D08C
:102E10000268536823F48033016B0B435360836A69
:102E200013F0040F06D00268536823F48023416B2B
:102E30000B435360836A13F0100F06D00268936847
:102E400023F48053C16B0B439360836A13F0200F0C
:102E500006D00268936823F40053016C0B4393601F
:102E6000836A13F0400F0AD00268536823F480137A
:102E7000416C0B435360436CB3F5801F0BD0836AE6
:102E800013F0800F06D00268536823F40023C16C4E
:102E90000B43536070470268536823F4C003816C8E
:102EA0000B435360EBE72DE9F84305460E46174602
:102EB0009946DDF820802C68E46936EA04030CBFEB
:102EC0004FF0010C4FF0000CBC4536D1B8F1FF3F7C
:102ED000F1D0FEF7EBF8A0EB0900404530D8B8F18F
:102EE000000F2FD02B681A6812F0040FE3D0802E49
:102EF000E1D0402EDFD0DA6912F0080F11D1DA6983
:102F000012F4006FD7D04FF400621A622846FFF720
:102F100025F92023C5F89030002385F8843003205C
:102F20000CE008241C622846FFF718F9C5F8904009
:102F3000002385F88430012000E00020BDE8F883FC
:102F40000320FBE70320F9E72DE9F04182B01E469C
:102F5000D0F88830202B5AD104460D4690460029DF
:102F600059D00AB9012053E00023C0F89030212342
:102F7000C0F88830FEF79AF80746A4F85480A4F801
:102F80005680A368B3F5805F02D04FF0000816E0CA
:102F9000236943B34FF0000811E02023C4F88830C0
:102FA000032035E038F8023B2268C3F3080393623C
:102FB000B4F8562092B2013A92B2A4F85620B4F86E
:102FC00056309BB293B100963B46002280212046AA
:102FD000FFF769FF0028E0D1002DE3D015F8012BA1
:102FE00023689A62E4E7A8460025E8E700963B4696
:102FF000002240212046FFF756FF18B92023C4F8CD
:10300000883005E02023C4F88830032000E0022047
:1030100002B0BDE8F0810120FAE730B583B0044684
:103020000023C0F89030FEF741F805462268126888
:1030300012F0080F10D123681B6813F0040F28D179
:103040002023C4F88830C4F88C300020E066206764
:1030500084F8840003B030BD6FF07E4300930346D4
:1030600000224FF400112046FFF71DFF0028E2D098
:10307000226852E8003F23F0800342E80031002933
:10308000F6D12023C4F88830002384F8843003204C
:10309000E0E76FF07E4300932B4600224FF480015F
:1030A0002046FFF700FF0028CAD0226852E8003F00
:1030B00023F4907342E800310029F6D1226802F12E
:1030C000080353E8003F23F00103083242E80031CF
:1030D0000029F3D12023C4F88C30002384F88430F5
:1030E0000320B7E778B310B50446D0F888300BB3A7
:1030F0002423C4F888302268136823F00103136086
:10310000A36AE3B92046FFF7C7FC012811D0226863
:10311000536823F4904353602268936823F02A0392
:1031200093602268136843F0010313602046FFF7A1
:1031300074FF10BD80F88430FDF7D0FED8E720463C
:10314000FFF74CFEDEE701207047000010B48165F8
:10315000A0F85C20A0F85E20002343678368B3F5E5
:10316000805F06D0A3B9036973B9FF23A0F860306C
:1031700014E0036923B940F2FF13A0F860300DE0BA
:10318000FF23A0F8603009E07F23A0F8603005E05D
:10319000B3F1805F2DD00023A0F860300023C0F889
:1031A00090302223C0F88C30016801F1080353E805
:1031B000003F43F00103083141E80034002CF3D113
:1031C000436EB3F1005F1ED08368B3F5805F42D0D9
:1031D000294B43670369002B43D0026852E8003F44
:1031E00043F4907342E800310029F6D1002010BC6E
:1031F000704703691BB97F23A0F86030CEE73F23F7
:10320000A0F86030CAE7B0F868309342DCD8836831
:10321000B3F5805F19D0194B4367036943B1026866
:1032200052E8003F43F4807342E800310029F6D1B0
:10323000026802F1080353E8003F43F0805308326C
:1032400042E800310029F3D1D0E70369002BE2D135
:103250000B4B4367E1E70369002BB9D1094B436787
:10326000B8E7026852E8003F43F0200342E800312B
:103270000029F6D1BAE700BF552500080927000844
:10328000D12800083126000838B5D0F88C30202B22
:1032900017D1C1B1CAB10023C36603680C4CA34265
:1032A0000CD05B6813F4000F08D0046854E8003FAA
:1032B00043F0806344E80035002DF6D1FFF746FF68
:1032C00000E0022038BD0120FCE70120FAE700BF42
:1032D00000800040436E2BB90123A0F86A30A0F8AB
:1032E0006830704730B403689A68C2F342629968E4
:1032F000490F094D6B5CDB00084C615C93FBF1F3FB
:10330000A0F86A30AB5CDB00A25C93FBF2F3A0F8A0
:10331000683030BC704700BF243700081C370008F5
:1033200070477047704790F88430012B18D0012304
:1033300080F884302423C0F8883003681A6819683C
:1033400021F00101196022F0005200234366016858
:103350000A602022C0F8882080F884301846704720
:103360000220704738B590F88430012B1DD00446F8
:10337000012380F884302423C0F8883003681D6856
:103380001A6822F001021A600268936823F0604311
:1033900019439160FFF79EFF23681D602023C4F846
:1033A0008830002084F8840038BD0220FCE738B55E
:1033B00090F88430012B1DD00446012380F884301E
:1033C0002423C0F8883003681D681A6822F00102BF
:1033D0001A600268936823F0606319439160FFF7F5
:1033E00079FF23681D602023C4F88830002084F80A
:1033F000840038BD0220FCE770B50D4E0D4D761BE4
:10340000B61006D0002455F8043B01349847A64274
:10341000F9D1094E094D761B00F052F9B61006D0CD
:10342000002455F8043B01349847A642F9D170BDF9
:1034300038370008383700084037000838370008A8
:10344000830730B548D0541E002A3FD0CAB2034685
:1034500001E0013C3AD303F8012B9D07F9D1032C7D
:103460002DD9CDB245EA05250F2C45EA054536D9BB
:10347000A4F1100222F00F0C03F1200EE6444FEAF3
:10348000121C03F1100242E9045542E902551032C0
:103490007245F8D10CF1010214F00C0F03EB02128B
:1034A00004F00F0C13D0ACF1040323F00303043336
:1034B000134442F8045B9342FBD10CF003042CB19B
:1034C000CAB21C4403F8012B9C42FBD130BD6446B8
:1034D0001346002CF4D1F9E703461446BFE71A4619
:1034E000A446E0E7830710B5044610D10268A2F1B4
:1034F000013323EA020313F0803F08D150F8042F70
:10350000A2F1013323EA020313F0803FF6D00378DF
:103510001BB110F8013F002BFBD100F003F820464F
:1035200010BD00BF80EA0102844612F0030F4FD1A4
:1035300011F0030F32D14DF8044D11F0040F51F882
:10354000043B0BD0A3F101329A4312F0803F04BF39
:103550004CF8043B51F8043B16D100BF51F8044B22
:10356000A3F101329A4312F0803FA4F101320BD152
:103570004CF8043BA24312F0803F04BF51F8043BD7
:103580004CF8044BEAD023460CF8013B13F0FF0F34
:103590004FEA3323F8D15DF8044B704711F0010F67
:1035A00006D011F8012B0CF8012B002A08BF704738
:1035B00011F0020FBFD031F8022B12F0FF0F16BF2F
:1035C0002CF8022B8CF8002012F47F4FB3D17047F7
:1035D00011F8012B0CF8012B002AF9D1704700BF1C
:1035E000024B13B1024800F005B87047000000001C
:1035F00001360008002301461A46184600F01AB8A2
:1036000038B5084B084D5B1B9C1007D0043B1D448C
:10361000013C55F804399847002CF9D1BDE83840F1
:1036200000F054B84437000840370008704700BF26
:10363000704700BF2DE9F047DFF87CA00646DAF8B6
:10364000000098460F469146FFF7F0FF1B4B1B68A2
:10365000D3F8484124B365681F2D26DC5EB96B1C86
:103660000235DAF80000636044F82570FFF7E0FFE8
:103670000020BDE8F08704EB85010123C1F88890A4
:10368000D4F88821AB401A43022EC4F88821C1F82F
:103690000881E4D1D4F88C211343C4F88C31DEE7DF
:1036A00003F5A674C3F84841D5E7DAF80000FFF740
:1036B000BFFF4FF0FF30DCE7B80400202C370008D4
:1036C000F8B500BFF8BC08BC9E467047F8B500BF0F
:0836D000F8BC08BC9E467047DF
:1036D800543A2000523A20000D0A00004F4B0000D7
:1036E8004154000000000000000000000102030433
:1036F8000607080900000000010203040100020097
:103708000400060008000A000C0010002000400019
:1037180080000001080402040801010101010103FD
:083728000701000090000020E1
:0837300040CBFF7F0100000007
:08373800E1350008250200083C
:04374000010200087A
:10374400415445300000000041542B4357494E4931
:10375400543D310041542B434950534E5450434639
:10376400473D312C322C22706C2E706F6F6C2E6E94
:1037740074702E6F7267220041542B434950534E8C
:10378400545054494D453F0041542B43574A4150EE
:103794003D22444D5F5454222C2257304233356429
:1037A4003879220041542B43574D4F44453D310055
:1037B40041542B43574155544F434F4E4E3D3000D7
:1037C4000024F400010000001000000000000000CC
:1037D400000000007C030020E40300204C040020CF
:1037E40000000000000000000000000000000000D5
:1037F40000000000000000000000000000000000C5
:1038040000000000000000000000000000000000B4
:1038140000000000000000000000000000000000A4
:103824000000000000000000000000000000000094
:103834000000000000000000000000000000000084
:103844000000000000000000000000000000000074
:103854000000000000000000000000000000000064
:103864000000000000000000000000000000000054
:103874000000000000000000010000000000000043
:103884000E33CDAB34126DE6ECDE05000B00000008
:103894000000000000000000000000000000000024
:1038A4000000000000000000000000000000000014
:1038B4000000000000000000000000000000000004
:1038C40000000000000000000000000000000000F4
:0C3BF4000000000000000000B4070020EA
:0400000508000FC51B
:00000001FF
